{
  "_format": "hh3-artifact-1",
  "contractName": "GoldCertificateNFT",
  "sourceName": "contracts/GoldCertificateNFT.sol",
  "abi": [
    {
      "inputs": [
        {
          "internalType": "address",
          "name": "initialOwner",
          "type": "address"
        }
      ],
      "stateMutability": "nonpayable",
      "type": "constructor"
    },
    {
      "inputs": [],
      "name": "ERC721EnumerableForbiddenBatchMint",
      "type": "error"
    },
    {
      "inputs": [
        {
          "internalType": "address",
          "name": "sender",
          "type": "address"
        },
        {
          "internalType": "uint256",
          "name": "tokenId",
          "type": "uint256"
        },
        {
          "internalType": "address",
          "name": "owner",
          "type": "address"
        }
      ],
      "name": "ERC721IncorrectOwner",
      "type": "error"
    },
    {
      "inputs": [
        {
          "internalType": "address",
          "name": "operator",
          "type": "address"
        },
        {
          "internalType": "uint256",
          "name": "tokenId",
          "type": "uint256"
        }
      ],
      "name": "ERC721InsufficientApproval",
      "type": "error"
    },
    {
      "inputs": [
        {
          "internalType": "address",
          "name": "approver",
          "type": "address"
        }
      ],
      "name": "ERC721InvalidApprover",
      "type": "error"
    },
    {
      "inputs": [
        {
          "internalType": "address",
          "name": "operator",
          "type": "address"
        }
      ],
      "name": "ERC721InvalidOperator",
      "type": "error"
    },
    {
      "inputs": [
        {
          "internalType": "address",
          "name": "owner",
          "type": "address"
        }
      ],
      "name": "ERC721InvalidOwner",
      "type": "error"
    },
    {
      "inputs": [
        {
          "internalType": "address",
          "name": "receiver",
          "type": "address"
        }
      ],
      "name": "ERC721InvalidReceiver",
      "type": "error"
    },
    {
      "inputs": [
        {
          "internalType": "address",
          "name": "sender",
          "type": "address"
        }
      ],
      "name": "ERC721InvalidSender",
      "type": "error"
    },
    {
      "inputs": [
        {
          "internalType": "uint256",
          "name": "tokenId",
          "type": "uint256"
        }
      ],
      "name": "ERC721NonexistentToken",
      "type": "error"
    },
    {
      "inputs": [
        {
          "internalType": "address",
          "name": "owner",
          "type": "address"
        },
        {
          "internalType": "uint256",
          "name": "index",
          "type": "uint256"
        }
      ],
      "name": "ERC721OutOfBoundsIndex",
      "type": "error"
    },
    {
      "inputs": [
        {
          "internalType": "address",
          "name": "owner",
          "type": "address"
        }
      ],
      "name": "OwnableInvalidOwner",
      "type": "error"
    },
    {
      "inputs": [
        {
          "internalType": "address",
          "name": "account",
          "type": "address"
        }
      ],
      "name": "OwnableUnauthorizedAccount",
      "type": "error"
    },
    {
      "anonymous": false,
      "inputs": [
        {
          "indexed": true,
          "internalType": "address",
          "name": "owner",
          "type": "address"
        },
        {
          "indexed": true,
          "internalType": "address",
          "name": "approved",
          "type": "address"
        },
        {
          "indexed": true,
          "internalType": "uint256",
          "name": "tokenId",
          "type": "uint256"
        }
      ],
      "name": "Approval",
      "type": "event"
    },
    {
      "anonymous": false,
      "inputs": [
        {
          "indexed": true,
          "internalType": "address",
          "name": "owner",
          "type": "address"
        },
        {
          "indexed": true,
          "internalType": "address",
          "name": "operator",
          "type": "address"
        },
        {
          "indexed": false,
          "internalType": "bool",
          "name": "approved",
          "type": "bool"
        }
      ],
      "name": "ApprovalForAll",
      "type": "event"
    },
    {
      "anonymous": false,
      "inputs": [
        {
          "indexed": false,
          "internalType": "uint256",
          "name": "_fromTokenId",
          "type": "uint256"
        },
        {
          "indexed": false,
          "internalType": "uint256",
          "name": "_toTokenId",
          "type": "uint256"
        }
      ],
      "name": "BatchMetadataUpdate",
      "type": "event"
    },
    {
      "anonymous": false,
      "inputs": [
        {
          "indexed": false,
          "internalType": "uint256",
          "name": "_tokenId",
          "type": "uint256"
        }
      ],
      "name": "MetadataUpdate",
      "type": "event"
    },
    {
      "anonymous": false,
      "inputs": [
        {
          "indexed": true,
          "internalType": "address",
          "name": "previousOwner",
          "type": "address"
        },
        {
          "indexed": true,
          "internalType": "address",
          "name": "newOwner",
          "type": "address"
        }
      ],
      "name": "OwnershipTransferred",
      "type": "event"
    },
    {
      "anonymous": false,
      "inputs": [
        {
          "indexed": true,
          "internalType": "address",
          "name": "from",
          "type": "address"
        },
        {
          "indexed": true,
          "internalType": "address",
          "name": "to",
          "type": "address"
        },
        {
          "indexed": true,
          "internalType": "uint256",
          "name": "tokenId",
          "type": "uint256"
        }
      ],
      "name": "Transfer",
      "type": "event"
    },
    {
      "inputs": [
        {
          "internalType": "address",
          "name": "to",
          "type": "address"
        },
        {
          "internalType": "uint256",
          "name": "tokenId",
          "type": "uint256"
        }
      ],
      "name": "approve",
      "outputs": [],
      "stateMutability": "nonpayable",
      "type": "function"
    },
    {
      "inputs": [
        {
          "internalType": "address",
          "name": "owner",
          "type": "address"
        }
      ],
      "name": "balanceOf",
      "outputs": [
        {
          "internalType": "uint256",
          "name": "",
          "type": "uint256"
        }
      ],
      "stateMutability": "view",
      "type": "function"
    },
    {
      "inputs": [
        {
          "internalType": "uint256",
          "name": "tokenId",
          "type": "uint256"
        }
      ],
      "name": "burnByAdmin",
      "outputs": [],
      "stateMutability": "nonpayable",
      "type": "function"
    },
    {
      "inputs": [
        {
          "internalType": "uint256",
          "name": "tokenId",
          "type": "uint256"
        }
      ],
      "name": "getApproved",
      "outputs": [
        {
          "internalType": "address",
          "name": "",
          "type": "address"
        }
      ],
      "stateMutability": "view",
      "type": "function"
    },
    {
      "inputs": [
        {
          "internalType": "address",
          "name": "owner",
          "type": "address"
        },
        {
          "internalType": "address",
          "name": "operator",
          "type": "address"
        }
      ],
      "name": "isApprovedForAll",
      "outputs": [
        {
          "internalType": "bool",
          "name": "",
          "type": "bool"
        }
      ],
      "stateMutability": "view",
      "type": "function"
    },
    {
      "inputs": [],
      "name": "name",
      "outputs": [
        {
          "internalType": "string",
          "name": "",
          "type": "string"
        }
      ],
      "stateMutability": "view",
      "type": "function"
    },
    {
      "inputs": [],
      "name": "owner",
      "outputs": [
        {
          "internalType": "address",
          "name": "",
          "type": "address"
        }
      ],
      "stateMutability": "view",
      "type": "function"
    },
    {
      "inputs": [
        {
          "internalType": "uint256",
          "name": "tokenId",
          "type": "uint256"
        }
      ],
      "name": "ownerOf",
      "outputs": [
        {
          "internalType": "address",
          "name": "",
          "type": "address"
        }
      ],
      "stateMutability": "view",
      "type": "function"
    },
    {
      "inputs": [],
      "name": "renounceOwnership",
      "outputs": [],
      "stateMutability": "nonpayable",
      "type": "function"
    },
    {
      "inputs": [
        {
          "internalType": "address",
          "name": "to",
          "type": "address"
        },
        {
          "internalType": "string",
          "name": "uri",
          "type": "string"
        }
      ],
      "name": "safeMint",
      "outputs": [],
      "stateMutability": "nonpayable",
      "type": "function"
    },
    {
      "inputs": [
        {
          "internalType": "address",
          "name": "from",
          "type": "address"
        },
        {
          "internalType": "address",
          "name": "to",
          "type": "address"
        },
        {
          "internalType": "uint256",
          "name": "tokenId",
          "type": "uint256"
        }
      ],
      "name": "safeTransferFrom",
      "outputs": [],
      "stateMutability": "nonpayable",
      "type": "function"
    },
    {
      "inputs": [
        {
          "internalType": "address",
          "name": "from",
          "type": "address"
        },
        {
          "internalType": "address",
          "name": "to",
          "type": "address"
        },
        {
          "internalType": "uint256",
          "name": "tokenId",
          "type": "uint256"
        },
        {
          "internalType": "bytes",
          "name": "data",
          "type": "bytes"
        }
      ],
      "name": "safeTransferFrom",
      "outputs": [],
      "stateMutability": "nonpayable",
      "type": "function"
    },
    {
      "inputs": [
        {
          "internalType": "address",
          "name": "operator",
          "type": "address"
        },
        {
          "internalType": "bool",
          "name": "approved",
          "type": "bool"
        }
      ],
      "name": "setApprovalForAll",
      "outputs": [],
      "stateMutability": "nonpayable",
      "type": "function"
    },
    {
      "inputs": [
        {
          "internalType": "bytes4",
          "name": "interfaceId",
          "type": "bytes4"
        }
      ],
      "name": "supportsInterface",
      "outputs": [
        {
          "internalType": "bool",
          "name": "",
          "type": "bool"
        }
      ],
      "stateMutability": "view",
      "type": "function"
    },
    {
      "inputs": [],
      "name": "symbol",
      "outputs": [
        {
          "internalType": "string",
          "name": "",
          "type": "string"
        }
      ],
      "stateMutability": "view",
      "type": "function"
    },
    {
      "inputs": [
        {
          "internalType": "uint256",
          "name": "index",
          "type": "uint256"
        }
      ],
      "name": "tokenByIndex",
      "outputs": [
        {
          "internalType": "uint256",
          "name": "",
          "type": "uint256"
        }
      ],
      "stateMutability": "view",
      "type": "function"
    },
    {
      "inputs": [
        {
          "internalType": "address",
          "name": "owner",
          "type": "address"
        },
        {
          "internalType": "uint256",
          "name": "index",
          "type": "uint256"
        }
      ],
      "name": "tokenOfOwnerByIndex",
      "outputs": [
        {
          "internalType": "uint256",
          "name": "",
          "type": "uint256"
        }
      ],
      "stateMutability": "view",
      "type": "function"
    },
    {
      "inputs": [
        {
          "internalType": "uint256",
          "name": "tokenId",
          "type": "uint256"
        }
      ],
      "name": "tokenURI",
      "outputs": [
        {
          "internalType": "string",
          "name": "",
          "type": "string"
        }
      ],
      "stateMutability": "view",
      "type": "function"
    },
    {
      "inputs": [],
      "name": "totalSupply",
      "outputs": [
        {
          "internalType": "uint256",
          "name": "",
          "type": "uint256"
        }
      ],
      "stateMutability": "view",
      "type": "function"
    },
    {
      "inputs": [
        {
          "internalType": "address",
          "name": "from",
          "type": "address"
        },
        {
          "internalType": "address",
          "name": "to",
          "type": "address"
        },
        {
          "internalType": "uint256",
          "name": "tokenId",
          "type": "uint256"
        }
      ],
      "name": "transferFrom",
      "outputs": [],
      "stateMutability": "nonpayable",
      "type": "function"
    },
    {
      "inputs": [
        {
          "internalType": "address",
          "name": "newOwner",
          "type": "address"
        }
      ],
      "name": "transferOwnership",
      "outputs": [],
      "stateMutability": "nonpayable",
      "type": "function"
    }
  ],
  "bytecode": "0x608060405234801561000f575f5ffd5b5060405161330138038061330183398181016040528101906100319190610266565b806040518060400160405280601081526020017f476f6c64204365727469666963617465000000000000000000000000000000008152506040518060400160405280600481526020017f474f4c4400000000000000000000000000000000000000000000000000000000815250815f90816100ac91906104ce565b5080600190816100bc91906104ce565b5050505f73ffffffffffffffffffffffffffffffffffffffff168173ffffffffffffffffffffffffffffffffffffffff160361012f575f6040517f1e4fbdf700000000000000000000000000000000000000000000000000000000815260040161012691906105ac565b60405180910390fd5b61013e8161014560201b60201c565b50506105c5565b5f600b5f9054906101000a900473ffffffffffffffffffffffffffffffffffffffff16905081600b5f6101000a81548173ffffffffffffffffffffffffffffffffffffffff021916908373ffffffffffffffffffffffffffffffffffffffff1602179055508173ffffffffffffffffffffffffffffffffffffffff168173ffffffffffffffffffffffffffffffffffffffff167f8be0079c531659141344cd1fd0a4f28419497f9722a3daafe3b4186f6b6457e060405160405180910390a35050565b5f5ffd5b5f73ffffffffffffffffffffffffffffffffffffffff82169050919050565b5f6102358261020c565b9050919050565b6102458161022b565b811461024f575f5ffd5b50565b5f815190506102608161023c565b92915050565b5f6020828403121561027b5761027a610208565b5b5f61028884828501610252565b91505092915050565b5f81519050919050565b7f4e487b71000000000000000000000000000000000000000000000000000000005f52604160045260245ffd5b7f4e487b71000000000000000000000000000000000000000000000000000000005f52602260045260245ffd5b5f600282049050600182168061030c57607f821691505b60208210810361031f5761031e6102c8565b5b50919050565b5f819050815f5260205f209050919050565b5f6020601f8301049050919050565b5f82821b905092915050565b5f600883026103817fffffffffffffffffffffffffffffffffffffffffffffffffffffffffffffffff82610346565b61038b8683610346565b95508019841693508086168417925050509392505050565b5f819050919050565b5f819050919050565b5f6103cf6103ca6103c5846103a3565b6103ac565b6103a3565b9050919050565b5f819050919050565b6103e8836103b5565b6103fc6103f4826103d6565b848454610352565b825550505050565b5f5f905090565b610413610404565b61041e8184846103df565b505050565b5b81811015610441576104365f8261040b565b600181019050610424565b5050565b601f8211156104865761045781610325565b61046084610337565b8101602085101561046f578190505b61048361047b85610337565b830182610423565b50505b505050565b5f82821c905092915050565b5f6104a65f198460080261048b565b1980831691505092915050565b5f6104be8383610497565b9150826002028217905092915050565b6104d782610291565b67ffffffffffffffff8111156104f0576104ef61029b565b5b6104fa82546102f5565b610505828285610445565b5f60209050601f831160018114610536575f8415610524578287015190505b61052e85826104b3565b865550610595565b601f19841661054486610325565b5f5b8281101561056b57848901518255600182019150602085019450602081019050610546565b868310156105885784890151610584601f891682610497565b8355505b6001600288020188555050505b505050505050565b6105a68161022b565b82525050565b5f6020820190506105bf5f83018461059d565b92915050565b612d2f806105d25f395ff3fe608060405234801561000f575f5ffd5b5060043610610135575f3560e01c80636352211e116100b6578063a22cb4651161007a578063a22cb4651461034b578063b88d4fde14610367578063c87b56dd14610383578063d204c45e146103b3578063e985e9c5146103cf578063f2fde38b146103ff57610135565b80636352211e146102a557806370a08231146102d5578063715018a6146103055780638da5cb5b1461030f57806395d89b411461032d57610135565b806321ea5308116100fd57806321ea5308146101f157806323b872dd1461020d5780632f745c591461022957806342842e0e146102595780634f6ccce71461027557610135565b806301ffc9a71461013957806306fdde0314610169578063081812fc14610187578063095ea7b3146101b757806318160ddd146101d3575b5f5ffd5b610153600480360381019061014e9190612172565b61041b565b60405161016091906121b7565b60405180910390f35b61017161042c565b60405161017e9190612240565b60405180910390f35b6101a1600480360381019061019c9190612293565b6104bb565b6040516101ae91906122fd565b60405180910390f35b6101d160048036038101906101cc9190612340565b6104d6565b005b6101db6104ec565b6040516101e8919061238d565b60405180910390f35b61020b60048036038101906102069190612293565b6104f8565b005b610227600480360381019061022291906123a6565b61050c565b005b610243600480360381019061023e9190612340565b61060b565b604051610250919061238d565b60405180910390f35b610273600480360381019061026e91906123a6565b6106af565b005b61028f600480360381019061028a9190612293565b6106ce565b60405161029c919061238d565b60405180910390f35b6102bf60048036038101906102ba9190612293565b610740565b6040516102cc91906122fd565b60405180910390f35b6102ef60048036038101906102ea91906123f6565b610751565b6040516102fc919061238d565b60405180910390f35b61030d610807565b005b61031761081a565b60405161032491906122fd565b60405180910390f35b610335610842565b6040516103429190612240565b60405180910390f35b6103656004803603810190610360919061244b565b6108d2565b005b610381600480360381019061037c91906125b5565b6108e8565b005b61039d60048036038101906103989190612293565b61090d565b6040516103aa9190612240565b60405180910390f35b6103cd60048036038101906103c891906126d3565b61091f565b005b6103e960048036038101906103e4919061272d565b610959565b6040516103f691906121b7565b60405180910390f35b610419600480360381019061041491906123f6565b6109e7565b005b5f61042582610a6b565b9050919050565b60605f805461043a90612798565b80601f016020809104026020016040519081016040528092919081815260200182805461046690612798565b80156104b15780601f10610488576101008083540402835291602001916104b1565b820191905f5260205f20905b81548152906001019060200180831161049457829003601f168201915b5050505050905090565b5f6104c582610acb565b506104cf82610b51565b9050919050565b6104e882826104e3610b8a565b610b91565b5050565b5f600880549050905090565b610500610ba3565b61050981610c2a565b50565b5f73ffffffffffffffffffffffffffffffffffffffff168273ffffffffffffffffffffffffffffffffffffffff160361057c575f6040517f64a0ae9200000000000000000000000000000000000000000000000000000000815260040161057391906122fd565b60405180910390fd5b5f61058f838361058a610b8a565b610cac565b90508373ffffffffffffffffffffffffffffffffffffffff168173ffffffffffffffffffffffffffffffffffffffff1614610605578382826040517f64283d7b0000000000000000000000000000000000000000000000000000000081526004016105fc939291906127c8565b60405180910390fd5b50505050565b5f61061583610751565b821061065a5782826040517fa57d13dc0000000000000000000000000000000000000000000000000000000081526004016106519291906127fd565b60405180910390fd5b60065f8473ffffffffffffffffffffffffffffffffffffffff1673ffffffffffffffffffffffffffffffffffffffff1681526020019081526020015f205f8381526020019081526020015f2054905092915050565b6106c983838360405180602001604052805f8152506108e8565b505050565b5f6106d76104ec565b821061071c575f826040517fa57d13dc0000000000000000000000000000000000000000000000000000000081526004016107139291906127fd565b60405180910390fd5b600882815481106107305761072f612824565b5b905f5260205f2001549050919050565b5f61074a82610acb565b9050919050565b5f5f73ffffffffffffffffffffffffffffffffffffffff168273ffffffffffffffffffffffffffffffffffffffff16036107c2575f6040517f89c62b640000000000000000000000000000000000000000000000000000000081526004016107b991906122fd565b60405180910390fd5b60035f8373ffffffffffffffffffffffffffffffffffffffff1673ffffffffffffffffffffffffffffffffffffffff1681526020019081526020015f20549050919050565b61080f610ba3565b6108185f610cc1565b565b5f600b5f9054906101000a900473ffffffffffffffffffffffffffffffffffffffff16905090565b60606001805461085190612798565b80601f016020809104026020016040519081016040528092919081815260200182805461087d90612798565b80156108c85780601f1061089f576101008083540402835291602001916108c8565b820191905f5260205f20905b8154815290600101906020018083116108ab57829003601f168201915b5050505050905090565b6108e46108dd610b8a565b8383610d84565b5050565b6108f384848461050c565b6109076108fe610b8a565b85858585610f5d565b50505050565b606061091882611109565b9050919050565b610927610ba3565b5f600c5f81548092919061093a9061287e565b91905055905061094a8382611185565b61095481836111a2565b505050565b5f60055f8473ffffffffffffffffffffffffffffffffffffffff1673ffffffffffffffffffffffffffffffffffffffff1681526020019081526020015f205f8373ffffffffffffffffffffffffffffffffffffffff1673ffffffffffffffffffffffffffffffffffffffff1681526020019081526020015f205f9054906101000a900460ff16905092915050565b6109ef610ba3565b5f73ffffffffffffffffffffffffffffffffffffffff168173ffffffffffffffffffffffffffffffffffffffff1603610a5f575f6040517f1e4fbdf7000000000000000000000000000000000000000000000000000000008152600401610a5691906122fd565b60405180910390fd5b610a6881610cc1565b50565b5f634906490660e01b7bffffffffffffffffffffffffffffffffffffffffffffffffffffffff1916827bffffffffffffffffffffffffffffffffffffffffffffffffffffffff19161480610ac45750610ac3826111fc565b5b9050919050565b5f5f610ad683611275565b90505f73ffffffffffffffffffffffffffffffffffffffff168173ffffffffffffffffffffffffffffffffffffffff1603610b4857826040517f7e273289000000000000000000000000000000000000000000000000000000008152600401610b3f919061238d565b60405180910390fd5b80915050919050565b5f60045f8381526020019081526020015f205f9054906101000a900473ffffffffffffffffffffffffffffffffffffffff169050919050565b5f33905090565b610b9e83838360016112ae565b505050565b610bab610b8a565b73ffffffffffffffffffffffffffffffffffffffff16610bc961081a565b73ffffffffffffffffffffffffffffffffffffffff1614610c2857610bec610b8a565b6040517f118cdaa7000000000000000000000000000000000000000000000000000000008152600401610c1f91906122fd565b60405180910390fd5b565b5f610c365f835f610cac565b90505f73ffffffffffffffffffffffffffffffffffffffff168173ffffffffffffffffffffffffffffffffffffffff1603610ca857816040517f7e273289000000000000000000000000000000000000000000000000000000008152600401610c9f919061238d565b60405180910390fd5b5050565b5f610cb884848461146d565b90509392505050565b5f600b5f9054906101000a900473ffffffffffffffffffffffffffffffffffffffff16905081600b5f6101000a81548173ffffffffffffffffffffffffffffffffffffffff021916908373ffffffffffffffffffffffffffffffffffffffff1602179055508173ffffffffffffffffffffffffffffffffffffffff168173ffffffffffffffffffffffffffffffffffffffff167f8be0079c531659141344cd1fd0a4f28419497f9722a3daafe3b4186f6b6457e060405160405180910390a35050565b5f73ffffffffffffffffffffffffffffffffffffffff168373ffffffffffffffffffffffffffffffffffffffff1603610df4575f6040517fa9fbf51f000000000000000000000000000000000000000000000000000000008152600401610deb91906122fd565b60405180910390fd5b5f73ffffffffffffffffffffffffffffffffffffffff168273ffffffffffffffffffffffffffffffffffffffff1603610e6457816040517f5b08ba18000000000000000000000000000000000000000000000000000000008152600401610e5b91906122fd565b60405180910390fd5b8060055f8573ffffffffffffffffffffffffffffffffffffffff1673ffffffffffffffffffffffffffffffffffffffff1681526020019081526020015f205f8473ffffffffffffffffffffffffffffffffffffffff1673ffffffffffffffffffffffffffffffffffffffff1681526020019081526020015f205f6101000a81548160ff0219169083151502179055508173ffffffffffffffffffffffffffffffffffffffff168373ffffffffffffffffffffffffffffffffffffffff167f17307eab39ab6107e8899845ad3d59bd9653f200f220920489ca2b5937696c3183604051610f5091906121b7565b60405180910390a3505050565b5f8373ffffffffffffffffffffffffffffffffffffffff163b1115611102578273ffffffffffffffffffffffffffffffffffffffff1663150b7a02868685856040518563ffffffff1660e01b8152600401610fbb9493929190612917565b6020604051808303815f875af1925050508015610ff657506040513d601f19601f82011682018060405250810190610ff39190612975565b60015b611077573d805f8114611024576040519150601f19603f3d011682016040523d82523d5f602084013e611029565b606091505b505f81510361106f57836040517f64a0ae9200000000000000000000000000000000000000000000000000000000815260040161106691906122fd565b60405180910390fd5b805160208201fd5b63150b7a0260e01b7bffffffffffffffffffffffffffffffffffffffffffffffffffffffff1916817bffffffffffffffffffffffffffffffffffffffffffffffffffffffff19161461110057836040517f64a0ae920000000000000000000000000000000000000000000000000000000081526004016110f791906122fd565b60405180910390fd5b505b5050505050565b606061111482610acb565b505f61111e611587565b90505f61112a8461159d565b90505f82510361113e578092505050611180565b5f8151111561117257818160405160200161115a9291906129da565b60405160208183030381529060405292505050611180565b61117b8461163e565b925050505b919050565b61119e828260405180602001604052805f8152506116a4565b5050565b80600a5f8481526020019081526020015f2090816111c09190612b9d565b507ff8e1a15aba9398e019f0b49df1a4fde98ee17ae345cb5f6b5e2c27f5033e8ce7826040516111f0919061238d565b60405180910390a15050565b5f7f780e9d63000000000000000000000000000000000000000000000000000000007bffffffffffffffffffffffffffffffffffffffffffffffffffffffff1916827bffffffffffffffffffffffffffffffffffffffffffffffffffffffff1916148061126e575061126d826116c7565b5b9050919050565b5f60025f8381526020019081526020015f205f9054906101000a900473ffffffffffffffffffffffffffffffffffffffff169050919050565b80806112e657505f73ffffffffffffffffffffffffffffffffffffffff168273ffffffffffffffffffffffffffffffffffffffff1614155b15611418575f6112f584610acb565b90505f73ffffffffffffffffffffffffffffffffffffffff168373ffffffffffffffffffffffffffffffffffffffff161415801561135f57508273ffffffffffffffffffffffffffffffffffffffff168173ffffffffffffffffffffffffffffffffffffffff1614155b801561137257506113708184610959565b155b156113b457826040517fa9fbf51f0000000000000000000000000000000000000000000000000000000081526004016113ab91906122fd565b60405180910390fd5b811561141657838573ffffffffffffffffffffffffffffffffffffffff168273ffffffffffffffffffffffffffffffffffffffff167f8c5be1e5ebec7d5bd14f71427d1e84f3dd0314c0f7b2291e5b200ac8c7c3b92560405160405180910390a45b505b8360045f8581526020019081526020015f205f6101000a81548173ffffffffffffffffffffffffffffffffffffffff021916908373ffffffffffffffffffffffffffffffffffffffff16021790555050505050565b5f5f61147a8585856117a8565b90505f73ffffffffffffffffffffffffffffffffffffffff168173ffffffffffffffffffffffffffffffffffffffff16036114bd576114b8846119b3565b6114fc565b8473ffffffffffffffffffffffffffffffffffffffff168173ffffffffffffffffffffffffffffffffffffffff16146114fb576114fa81856119f7565b5b5b5f73ffffffffffffffffffffffffffffffffffffffff168573ffffffffffffffffffffffffffffffffffffffff160361153d5761153884611ace565b61157c565b8473ffffffffffffffffffffffffffffffffffffffff168173ffffffffffffffffffffffffffffffffffffffff161461157b5761157a8585611b8e565b5b5b809150509392505050565b606060405180602001604052805f815250905090565b6060600a5f8381526020019081526020015f2080546115bb90612798565b80601f01602080910402602001604051908101604052809291908181526020018280546115e790612798565b80156116325780601f1061160957610100808354040283529160200191611632565b820191905f5260205f20905b81548152906001019060200180831161161557829003601f168201915b50505050509050919050565b606061164982610acb565b505f611653611587565b90505f8151116116715760405180602001604052805f81525061169c565b8061167b84611c12565b60405160200161168c9291906129da565b6040516020818303038152906040525b915050919050565b6116ae8383611cdc565b6116c26116b9610b8a565b5f858585610f5d565b505050565b5f7f80ac58cd000000000000000000000000000000000000000000000000000000007bffffffffffffffffffffffffffffffffffffffffffffffffffffffff1916827bffffffffffffffffffffffffffffffffffffffffffffffffffffffff1916148061179157507f5b5e139f000000000000000000000000000000000000000000000000000000007bffffffffffffffffffffffffffffffffffffffffffffffffffffffff1916827bffffffffffffffffffffffffffffffffffffffffffffffffffffffff1916145b806117a157506117a082611dcf565b5b9050919050565b5f5f6117b384611275565b90505f73ffffffffffffffffffffffffffffffffffffffff168373ffffffffffffffffffffffffffffffffffffffff16146117f4576117f3818486611e38565b5b5f73ffffffffffffffffffffffffffffffffffffffff168173ffffffffffffffffffffffffffffffffffffffff161461187f576118335f855f5f6112ae565b600160035f8373ffffffffffffffffffffffffffffffffffffffff1673ffffffffffffffffffffffffffffffffffffffff1681526020019081526020015f205f82825403925050819055505b5f73ffffffffffffffffffffffffffffffffffffffff168573ffffffffffffffffffffffffffffffffffffffff16146118fe57600160035f8773ffffffffffffffffffffffffffffffffffffffff1673ffffffffffffffffffffffffffffffffffffffff1681526020019081526020015f205f82825401925050819055505b8460025f8681526020019081526020015f205f6101000a81548173ffffffffffffffffffffffffffffffffffffffff021916908373ffffffffffffffffffffffffffffffffffffffff160217905550838573ffffffffffffffffffffffffffffffffffffffff168273ffffffffffffffffffffffffffffffffffffffff167fddf252ad1be2c89b69c2b068fc378daa952ba7f163c4a11628f55a4df523b3ef60405160405180910390a4809150509392505050565b60088054905060095f8381526020019081526020015f2081905550600881908060018154018082558091505060019003905f5260205f20015f909190919091505550565b5f611a0183610751565b90505f60075f8481526020019081526020015f205490505f60065f8673ffffffffffffffffffffffffffffffffffffffff1673ffffffffffffffffffffffffffffffffffffffff1681526020019081526020015f209050828214611aa0575f815f8581526020019081526020015f2054905080825f8581526020019081526020015f20819055508260075f8381526020019081526020015f2081905550505b60075f8581526020019081526020015f205f9055805f8481526020019081526020015f205f90555050505050565b5f6001600880549050611ae19190612c6c565b90505f60095f8481526020019081526020015f205490505f60088381548110611b0d57611b0c612824565b5b905f5260205f20015490508060088381548110611b2d57611b2c612824565b5b905f5260205f2001819055508160095f8381526020019081526020015f208190555060095f8581526020019081526020015f205f90556008805480611b7557611b74612c9f565b5b600190038181905f5260205f20015f9055905550505050565b5f6001611b9a84610751565b611ba49190612c6c565b90508160065f8573ffffffffffffffffffffffffffffffffffffffff1673ffffffffffffffffffffffffffffffffffffffff1681526020019081526020015f205f8381526020019081526020015f20819055508060075f8481526020019081526020015f2081905550505050565b60605f6001611c2084611efb565b0190505f8167ffffffffffffffff811115611c3e57611c3d612491565b5b6040519080825280601f01601f191660200182016040528015611c705781602001600182028036833780820191505090505b5090505f82602083010190505b600115611cd1578080600190039150507f3031323334353637383961626364656600000000000000000000000000000000600a86061a8153600a8581611cc657611cc5612ccc565b5b0494505f8503611c7d575b819350505050919050565b5f73ffffffffffffffffffffffffffffffffffffffff168273ffffffffffffffffffffffffffffffffffffffff1603611d4c575f6040517f64a0ae92000000000000000000000000000000000000000000000000000000008152600401611d4391906122fd565b60405180910390fd5b5f611d5883835f610cac565b90505f73ffffffffffffffffffffffffffffffffffffffff168173ffffffffffffffffffffffffffffffffffffffff1614611dca575f6040517f73c6ac6e000000000000000000000000000000000000000000000000000000008152600401611dc191906122fd565b60405180910390fd5b505050565b5f7f01ffc9a7000000000000000000000000000000000000000000000000000000007bffffffffffffffffffffffffffffffffffffffffffffffffffffffff1916827bffffffffffffffffffffffffffffffffffffffffffffffffffffffff1916149050919050565b611e4383838361204c565b611ef6575f73ffffffffffffffffffffffffffffffffffffffff168373ffffffffffffffffffffffffffffffffffffffff1603611eb757806040517f7e273289000000000000000000000000000000000000000000000000000000008152600401611eae919061238d565b60405180910390fd5b81816040517f177e802f000000000000000000000000000000000000000000000000000000008152600401611eed9291906127fd565b60405180910390fd5b505050565b5f5f5f90507a184f03e93ff9f4daa797ed6e38ed64bf6a1f0100000000000000008310611f57577a184f03e93ff9f4daa797ed6e38ed64bf6a1f0100000000000000008381611f4d57611f4c612ccc565b5b0492506040810190505b6d04ee2d6d415b85acef81000000008310611f94576d04ee2d6d415b85acef81000000008381611f8a57611f89612ccc565b5b0492506020810190505b662386f26fc100008310611fc357662386f26fc100008381611fb957611fb8612ccc565b5b0492506010810190505b6305f5e1008310611fec576305f5e1008381611fe257611fe1612ccc565b5b0492506008810190505b612710831061201157612710838161200757612006612ccc565b5b0492506004810190505b60648310612034576064838161202a57612029612ccc565b5b0492506002810190505b600a8310612043576001810190505b80915050919050565b5f5f73ffffffffffffffffffffffffffffffffffffffff168373ffffffffffffffffffffffffffffffffffffffff161415801561210357508273ffffffffffffffffffffffffffffffffffffffff168473ffffffffffffffffffffffffffffffffffffffff1614806120c457506120c38484610959565b5b8061210257508273ffffffffffffffffffffffffffffffffffffffff166120ea83610b51565b73ffffffffffffffffffffffffffffffffffffffff16145b5b90509392505050565b5f604051905090565b5f5ffd5b5f5ffd5b5f7fffffffff0000000000000000000000000000000000000000000000000000000082169050919050565b6121518161211d565b811461215b575f5ffd5b50565b5f8135905061216c81612148565b92915050565b5f6020828403121561218757612186612115565b5b5f6121948482850161215e565b91505092915050565b5f8115159050919050565b6121b18161219d565b82525050565b5f6020820190506121ca5f8301846121a8565b92915050565b5f81519050919050565b5f82825260208201905092915050565b8281835e5f83830152505050565b5f601f19601f8301169050919050565b5f612212826121d0565b61221c81856121da565b935061222c8185602086016121ea565b612235816121f8565b840191505092915050565b5f6020820190508181035f8301526122588184612208565b905092915050565b5f819050919050565b61227281612260565b811461227c575f5ffd5b50565b5f8135905061228d81612269565b92915050565b5f602082840312156122a8576122a7612115565b5b5f6122b58482850161227f565b91505092915050565b5f73ffffffffffffffffffffffffffffffffffffffff82169050919050565b5f6122e7826122be565b9050919050565b6122f7816122dd565b82525050565b5f6020820190506123105f8301846122ee565b92915050565b61231f816122dd565b8114612329575f5ffd5b50565b5f8135905061233a81612316565b92915050565b5f5f6040838503121561235657612355612115565b5b5f6123638582860161232c565b92505060206123748582860161227f565b9150509250929050565b61238781612260565b82525050565b5f6020820190506123a05f83018461237e565b92915050565b5f5f5f606084860312156123bd576123bc612115565b5b5f6123ca8682870161232c565b93505060206123db8682870161232c565b92505060406123ec8682870161227f565b9150509250925092565b5f6020828403121561240b5761240a612115565b5b5f6124188482850161232c565b91505092915050565b61242a8161219d565b8114612434575f5ffd5b50565b5f8135905061244581612421565b92915050565b5f5f6040838503121561246157612460612115565b5b5f61246e8582860161232c565b925050602061247f85828601612437565b9150509250929050565b5f5ffd5b5f5ffd5b7f4e487b71000000000000000000000000000000000000000000000000000000005f52604160045260245ffd5b6124c7826121f8565b810181811067ffffffffffffffff821117156124e6576124e5612491565b5b80604052505050565b5f6124f861210c565b905061250482826124be565b919050565b5f67ffffffffffffffff82111561252357612522612491565b5b61252c826121f8565b9050602081019050919050565b828183375f83830152505050565b5f61255961255484612509565b6124ef565b9050828152602081018484840111156125755761257461248d565b5b612580848285612539565b509392505050565b5f82601f83011261259c5761259b612489565b5b81356125ac848260208601612547565b91505092915050565b5f5f5f5f608085870312156125cd576125cc612115565b5b5f6125da8782880161232c565b94505060206125eb8782880161232c565b93505060406125fc8782880161227f565b925050606085013567ffffffffffffffff81111561261d5761261c612119565b5b61262987828801612588565b91505092959194509250565b5f67ffffffffffffffff82111561264f5761264e612491565b5b612658826121f8565b9050602081019050919050565b5f61267761267284612635565b6124ef565b9050828152602081018484840111156126935761269261248d565b5b61269e848285612539565b509392505050565b5f82601f8301126126ba576126b9612489565b5b81356126ca848260208601612665565b91505092915050565b5f5f604083850312156126e9576126e8612115565b5b5f6126f68582860161232c565b925050602083013567ffffffffffffffff81111561271757612716612119565b5b612723858286016126a6565b9150509250929050565b5f5f6040838503121561274357612742612115565b5b5f6127508582860161232c565b92505060206127618582860161232c565b9150509250929050565b7f4e487b71000000000000000000000000000000000000000000000000000000005f52602260045260245ffd5b5f60028204905060018216806127af57607f821691505b6020821081036127c2576127c161276b565b5b50919050565b5f6060820190506127db5f8301866122ee565b6127e8602083018561237e565b6127f560408301846122ee565b949350505050565b5f6040820190506128105f8301856122ee565b61281d602083018461237e565b9392505050565b7f4e487b71000000000000000000000000000000000000000000000000000000005f52603260045260245ffd5b7f4e487b71000000000000000000000000000000000000000000000000000000005f52601160045260245ffd5b5f61288882612260565b91507fffffffffffffffffffffffffffffffffffffffffffffffffffffffffffffffff82036128ba576128b9612851565b5b600182019050919050565b5f81519050919050565b5f82825260208201905092915050565b5f6128e9826128c5565b6128f381856128cf565b93506129038185602086016121ea565b61290c816121f8565b840191505092915050565b5f60808201905061292a5f8301876122ee565b61293760208301866122ee565b612944604083018561237e565b818103606083015261295681846128df565b905095945050505050565b5f8151905061296f81612148565b92915050565b5f6020828403121561298a57612989612115565b5b5f61299784828501612961565b91505092915050565b5f81905092915050565b5f6129b4826121d0565b6129be81856129a0565b93506129ce8185602086016121ea565b80840191505092915050565b5f6129e582856129aa565b91506129f182846129aa565b91508190509392505050565b5f819050815f5260205f209050919050565b5f6020601f8301049050919050565b5f82821b905092915050565b5f60088302612a597fffffffffffffffffffffffffffffffffffffffffffffffffffffffffffffffff82612a1e565b612a638683612a1e565b95508019841693508086168417925050509392505050565b5f819050919050565b5f612a9e612a99612a9484612260565b612a7b565b612260565b9050919050565b5f819050919050565b612ab783612a84565b612acb612ac382612aa5565b848454612a2a565b825550505050565b5f5f905090565b612ae2612ad3565b612aed818484612aae565b505050565b5b81811015612b1057612b055f82612ada565b600181019050612af3565b5050565b601f821115612b5557612b26816129fd565b612b2f84612a0f565b81016020851015612b3e578190505b612b52612b4a85612a0f565b830182612af2565b50505b505050565b5f82821c905092915050565b5f612b755f1984600802612b5a565b1980831691505092915050565b5f612b8d8383612b66565b9150826002028217905092915050565b612ba6826121d0565b67ffffffffffffffff811115612bbf57612bbe612491565b5b612bc98254612798565b612bd4828285612b14565b5f60209050601f831160018114612c05575f8415612bf3578287015190505b612bfd8582612b82565b865550612c64565b601f198416612c13866129fd565b5f5b82811015612c3a57848901518255600182019150602085019450602081019050612c15565b86831015612c575784890151612c53601f891682612b66565b8355505b6001600288020188555050505b505050505050565b5f612c7682612260565b9150612c8183612260565b9250828203905081811115612c9957612c98612851565b5b92915050565b7f4e487b71000000000000000000000000000000000000000000000000000000005f52603160045260245ffd5b7f4e487b71000000000000000000000000000000000000000000000000000000005f52601260045260245ffdfea26469706673582212205d8bc950ad8a2694d5c196abb31207a049e1667cc66dd65a692d7b6d99c32a1164736f6c634300081c0033",
  "linkReferences": {},
  "deployedLinkReferences": {},
  "immutableReferences": {},
  "inputSourceName": "project/contracts/GoldCertificateNFT.sol",
  "buildInfoId": "solc-0_8_28-b1a4f0cdcbfbedd2ad63528d7cb1551e36d8cc82"
}